{
  "contractName": "ERC1155MinerReward",
  "abi": [
    {
      "inputs": [],
      "stateMutability": "nonpayable",
      "type": "constructor"
    },
    {
      "anonymous": false,
      "inputs": [
        {
          "indexed": true,
          "internalType": "address",
          "name": "account",
          "type": "address"
        },
        {
          "indexed": true,
          "internalType": "address",
          "name": "operator",
          "type": "address"
        },
        {
          "indexed": false,
          "internalType": "bool",
          "name": "approved",
          "type": "bool"
        }
      ],
      "name": "ApprovalForAll",
      "type": "event"
    },
    {
      "anonymous": false,
      "inputs": [
        {
          "indexed": false,
          "internalType": "string",
          "name": "description",
          "type": "string"
        },
        {
          "indexed": false,
          "internalType": "address",
          "name": "_minersAddress",
          "type": "address"
        },
        {
          "indexed": false,
          "internalType": "uint256",
          "name": "_n",
          "type": "uint256"
        }
      ],
      "name": "LogNewAlert",
      "type": "event"
    },
    {
      "anonymous": false,
      "inputs": [
        {
          "indexed": true,
          "internalType": "address",
          "name": "operator",
          "type": "address"
        },
        {
          "indexed": true,
          "internalType": "address",
          "name": "from",
          "type": "address"
        },
        {
          "indexed": true,
          "internalType": "address",
          "name": "to",
          "type": "address"
        },
        {
          "indexed": false,
          "internalType": "uint256[]",
          "name": "ids",
          "type": "uint256[]"
        },
        {
          "indexed": false,
          "internalType": "uint256[]",
          "name": "values",
          "type": "uint256[]"
        }
      ],
      "name": "TransferBatch",
      "type": "event"
    },
    {
      "anonymous": false,
      "inputs": [
        {
          "indexed": true,
          "internalType": "address",
          "name": "operator",
          "type": "address"
        },
        {
          "indexed": true,
          "internalType": "address",
          "name": "from",
          "type": "address"
        },
        {
          "indexed": true,
          "internalType": "address",
          "name": "to",
          "type": "address"
        },
        {
          "indexed": false,
          "internalType": "uint256",
          "name": "id",
          "type": "uint256"
        },
        {
          "indexed": false,
          "internalType": "uint256",
          "name": "value",
          "type": "uint256"
        }
      ],
      "name": "TransferSingle",
      "type": "event"
    },
    {
      "anonymous": false,
      "inputs": [
        {
          "indexed": false,
          "internalType": "string",
          "name": "value",
          "type": "string"
        },
        {
          "indexed": true,
          "internalType": "uint256",
          "name": "id",
          "type": "uint256"
        }
      ],
      "name": "URI",
      "type": "event"
    },
    {
      "inputs": [
        {
          "internalType": "address",
          "name": "account",
          "type": "address"
        },
        {
          "internalType": "uint256",
          "name": "id",
          "type": "uint256"
        }
      ],
      "name": "balanceOf",
      "outputs": [
        {
          "internalType": "uint256",
          "name": "",
          "type": "uint256"
        }
      ],
      "stateMutability": "view",
      "type": "function"
    },
    {
      "inputs": [
        {
          "internalType": "address[]",
          "name": "accounts",
          "type": "address[]"
        },
        {
          "internalType": "uint256[]",
          "name": "ids",
          "type": "uint256[]"
        }
      ],
      "name": "balanceOfBatch",
      "outputs": [
        {
          "internalType": "uint256[]",
          "name": "",
          "type": "uint256[]"
        }
      ],
      "stateMutability": "view",
      "type": "function"
    },
    {
      "inputs": [
        {
          "internalType": "address",
          "name": "account",
          "type": "address"
        },
        {
          "internalType": "address",
          "name": "operator",
          "type": "address"
        }
      ],
      "name": "isApprovedForAll",
      "outputs": [
        {
          "internalType": "bool",
          "name": "",
          "type": "bool"
        }
      ],
      "stateMutability": "view",
      "type": "function"
    },
    {
      "inputs": [
        {
          "internalType": "address",
          "name": "from",
          "type": "address"
        },
        {
          "internalType": "address",
          "name": "to",
          "type": "address"
        },
        {
          "internalType": "uint256[]",
          "name": "ids",
          "type": "uint256[]"
        },
        {
          "internalType": "uint256[]",
          "name": "amounts",
          "type": "uint256[]"
        },
        {
          "internalType": "bytes",
          "name": "data",
          "type": "bytes"
        }
      ],
      "name": "safeBatchTransferFrom",
      "outputs": [],
      "stateMutability": "nonpayable",
      "type": "function"
    },
    {
      "inputs": [
        {
          "internalType": "address",
          "name": "from",
          "type": "address"
        },
        {
          "internalType": "address",
          "name": "to",
          "type": "address"
        },
        {
          "internalType": "uint256",
          "name": "id",
          "type": "uint256"
        },
        {
          "internalType": "uint256",
          "name": "amount",
          "type": "uint256"
        },
        {
          "internalType": "bytes",
          "name": "data",
          "type": "bytes"
        }
      ],
      "name": "safeTransferFrom",
      "outputs": [],
      "stateMutability": "nonpayable",
      "type": "function"
    },
    {
      "inputs": [
        {
          "internalType": "address",
          "name": "operator",
          "type": "address"
        },
        {
          "internalType": "bool",
          "name": "approved",
          "type": "bool"
        }
      ],
      "name": "setApprovalForAll",
      "outputs": [],
      "stateMutability": "nonpayable",
      "type": "function"
    },
    {
      "inputs": [
        {
          "internalType": "bytes4",
          "name": "interfaceId",
          "type": "bytes4"
        }
      ],
      "name": "supportsInterface",
      "outputs": [
        {
          "internalType": "bool",
          "name": "",
          "type": "bool"
        }
      ],
      "stateMutability": "view",
      "type": "function"
    },
    {
      "inputs": [
        {
          "internalType": "uint256",
          "name": "",
          "type": "uint256"
        }
      ],
      "name": "uri",
      "outputs": [
        {
          "internalType": "string",
          "name": "",
          "type": "string"
        }
      ],
      "stateMutability": "view",
      "type": "function"
    },
    {
      "inputs": [],
      "name": "_rewardMe",
      "outputs": [],
      "stateMutability": "nonpayable",
      "type": "function"
    }
  ],
  "bytecode": "0x60806040523480156200001157600080fd5b506040518060400160405280600781526020017f313135354d52570000000000000000000000000000000000000000000000000081525062000059816200006060201b60201c565b50620003d6565b8060029081620000719190620002ef565b5050565b600081519050919050565b7f4e487b7100000000000000000000000000000000000000000000000000000000600052604160045260246000fd5b7f4e487b7100000000000000000000000000000000000000000000000000000000600052602260045260246000fd5b60006002820490506001821680620000f757607f821691505b6020821081036200010d576200010c620000af565b5b50919050565b60008190508160005260206000209050919050565b60006020601f8301049050919050565b600082821b905092915050565b600060088302620001777fffffffffffffffffffffffffffffffffffffffffffffffffffffffffffffffff8262000138565b62000183868362000138565b95508019841693508086168417925050509392505050565b6000819050919050565b6000819050919050565b6000620001d0620001ca620001c4846200019b565b620001a5565b6200019b565b9050919050565b6000819050919050565b620001ec83620001af565b62000204620001fb82620001d7565b84845462000145565b825550505050565b600090565b6200021b6200020c565b62000228818484620001e1565b505050565b5b8181101562000250576200024460008262000211565b6001810190506200022e565b5050565b601f8211156200029f57620002698162000113565b620002748462000128565b8101602085101562000284578190505b6200029c620002938562000128565b8301826200022d565b50505b505050565b600082821c905092915050565b6000620002c460001984600802620002a4565b1980831691505092915050565b6000620002df8383620002b1565b9150826002028217905092915050565b620002fa8262000075565b67ffffffffffffffff81111562000316576200031562000080565b5b620003228254620000de565b6200032f82828562000254565b600060209050601f83116001811462000367576000841562000352578287015190505b6200035e8582620002d1565b865550620003ce565b601f198416620003778662000113565b60005b82811015620003a1578489015182556001820191506020850194506020810190506200037a565b86831015620003c15784890151620003bd601f891682620002b1565b8355505b6001600288020188555050505b505050505050565b61292f80620003e66000396000f3fe608060405234801561001057600080fd5b50600436106100925760003560e01c8063493a1a3c11610066578063493a1a3c146101435780634e1273f41461014d578063a22cb4651461017d578063e985e9c514610199578063f242432a146101c957610092565b8062fdd58e1461009757806301ffc9a7146100c75780630e89341c146100f75780632eb2c2d614610127575b600080fd5b6100b160048036038101906100ac9190611649565b6101e5565b6040516100be9190611698565b60405180910390f35b6100e160048036038101906100dc919061170b565b6102ad565b6040516100ee9190611753565b60405180910390f35b610111600480360381019061010c919061176e565b61038f565b60405161011e919061182b565b60405180910390f35b610141600480360381019061013c9190611a4a565b610423565b005b61014b6104c4565b005b61016760048036038101906101629190611bdc565b610598565b6040516101749190611d12565b60405180910390f35b61019760048036038101906101929190611d60565b6106b1565b005b6101b360048036038101906101ae9190611da0565b6106c7565b6040516101c09190611753565b60405180910390f35b6101e360048036038101906101de9190611de0565b61075b565b005b60008073ffffffffffffffffffffffffffffffffffffffff168373ffffffffffffffffffffffffffffffffffffffff1603610255576040517f08c379a000000000000000000000000000000000000000000000000000000000815260040161024c90611ee9565b60405180910390fd5b60008083815260200190815260200160002060008473ffffffffffffffffffffffffffffffffffffffff1673ffffffffffffffffffffffffffffffffffffffff16815260200190815260200160002054905092915050565b60007fd9b67a26000000000000000000000000000000000000000000000000000000007bffffffffffffffffffffffffffffffffffffffffffffffffffffffff1916827bffffffffffffffffffffffffffffffffffffffffffffffffffffffff1916148061037857507f0e89341c000000000000000000000000000000000000000000000000000000007bffffffffffffffffffffffffffffffffffffffffffffffffffffffff1916827bffffffffffffffffffffffffffffffffffffffffffffffffffffffff1916145b806103885750610387826107fc565b5b9050919050565b60606002805461039e90611f38565b80601f01602080910402602001604051908101604052809291908181526020018280546103ca90611f38565b80156104175780601f106103ec57610100808354040283529160200191610417565b820191906000526020600020905b8154815290600101906020018083116103fa57829003601f168201915b50505050509050919050565b61042b610866565b73ffffffffffffffffffffffffffffffffffffffff168573ffffffffffffffffffffffffffffffffffffffff16148061047157506104708561046b610866565b6106c7565b5b6104b0576040517f08c379a00000000000000000000000000000000000000000000000000000000081526004016104a790611fdb565b60405180910390fd5b6104bd858585858561086e565b5050505050565b61055d41600454600a600380546104da90611f38565b80601f016020809104026020016040519081016040528092919081815260200182805461050690611f38565b80156105535780601f1061052857610100808354040283529160200191610553565b820191906000526020600020905b81548152906001019060200180831161053657829003601f168201915b5050505050610b8f565b7f773a356cf0813bd1ca65bdc565502f1d0bbe0bdb956cb13da59a9a437e2bd012414360405161058e9291906120cc565b60405180910390a1565b606081518351146105de576040517f08c379a00000000000000000000000000000000000000000000000000000000081526004016105d59061217a565b60405180910390fd5b6000835167ffffffffffffffff8111156105fb576105fa611852565b5b6040519080825280602002602001820160405280156106295781602001602082028036833780820191505090505b50905060005b84518110156106a65761067685828151811061064e5761064d61219a565b5b60200260200101518583815181106106695761066861219a565b5b60200260200101516101e5565b8282815181106106895761068861219a565b5b6020026020010181815250508061069f906121f8565b905061062f565b508091505092915050565b6106c36106bc610866565b8383610d3f565b5050565b6000600160008473ffffffffffffffffffffffffffffffffffffffff1673ffffffffffffffffffffffffffffffffffffffff16815260200190815260200160002060008373ffffffffffffffffffffffffffffffffffffffff1673ffffffffffffffffffffffffffffffffffffffff16815260200190815260200160002060009054906101000a900460ff16905092915050565b610763610866565b73ffffffffffffffffffffffffffffffffffffffff168573ffffffffffffffffffffffffffffffffffffffff1614806107a957506107a8856107a3610866565b6106c7565b5b6107e8576040517f08c379a00000000000000000000000000000000000000000000000000000000081526004016107df90611fdb565b60405180910390fd5b6107f58585858585610eab565b5050505050565b60007f01ffc9a7000000000000000000000000000000000000000000000000000000007bffffffffffffffffffffffffffffffffffffffffffffffffffffffff1916827bffffffffffffffffffffffffffffffffffffffffffffffffffffffff1916149050919050565b600033905090565b81518351146108b2576040517f08c379a00000000000000000000000000000000000000000000000000000000081526004016108a9906122b2565b60405180910390fd5b600073ffffffffffffffffffffffffffffffffffffffff168473ffffffffffffffffffffffffffffffffffffffff1603610921576040517f08c379a000000000000000000000000000000000000000000000000000000000815260040161091890612344565b60405180910390fd5b600061092b610866565b905061093b818787878787611146565b60005b8451811015610aec57600085828151811061095c5761095b61219a565b5b60200260200101519050600085838151811061097b5761097a61219a565b5b60200260200101519050600080600084815260200190815260200160002060008b73ffffffffffffffffffffffffffffffffffffffff1673ffffffffffffffffffffffffffffffffffffffff16815260200190815260200160002054905081811015610a1c576040517f08c379a0000000000000000000000000000000000000000000000000000000008152600401610a13906123d6565b60405180910390fd5b81810360008085815260200190815260200160002060008c73ffffffffffffffffffffffffffffffffffffffff1673ffffffffffffffffffffffffffffffffffffffff168152602001908152602001600020819055508160008085815260200190815260200160002060008b73ffffffffffffffffffffffffffffffffffffffff1673ffffffffffffffffffffffffffffffffffffffff1681526020019081526020016000206000828254610ad191906123f6565b9250508190555050505080610ae5906121f8565b905061093e565b508473ffffffffffffffffffffffffffffffffffffffff168673ffffffffffffffffffffffffffffffffffffffff168273ffffffffffffffffffffffffffffffffffffffff167f4a39dc06d4c0dbc64b70af90fd698a233a518aa5d07e595d983b8c0526c8f7fb8787604051610b6392919061242a565b60405180910390a4610b7981878787878761114e565b610b87818787878787611156565b505050505050565b600073ffffffffffffffffffffffffffffffffffffffff168473ffffffffffffffffffffffffffffffffffffffff1603610bfe576040517f08c379a0000000000000000000000000000000000000000000000000000000008152600401610bf5906124d3565b60405180910390fd5b6000610c08610866565b90506000610c158561132d565b90506000610c228561132d565b9050610c3383600089858589611146565b8460008088815260200190815260200160002060008973ffffffffffffffffffffffffffffffffffffffff1673ffffffffffffffffffffffffffffffffffffffff1681526020019081526020016000206000828254610c9291906123f6565b925050819055508673ffffffffffffffffffffffffffffffffffffffff16600073ffffffffffffffffffffffffffffffffffffffff168473ffffffffffffffffffffffffffffffffffffffff167fc3d58168c5ae7397731d063d5bbf3d657854427343f4c083240f7aacaa2d0f628989604051610d109291906124f3565b60405180910390a4610d278360008985858961114e565b610d36836000898989896113a7565b50505050505050565b8173ffffffffffffffffffffffffffffffffffffffff168373ffffffffffffffffffffffffffffffffffffffff1603610dad576040517f08c379a0000000000000000000000000000000000000000000000000000000008152600401610da49061258e565b60405180910390fd5b80600160008573ffffffffffffffffffffffffffffffffffffffff1673ffffffffffffffffffffffffffffffffffffffff16815260200190815260200160002060008473ffffffffffffffffffffffffffffffffffffffff1673ffffffffffffffffffffffffffffffffffffffff16815260200190815260200160002060006101000a81548160ff0219169083151502179055508173ffffffffffffffffffffffffffffffffffffffff168373ffffffffffffffffffffffffffffffffffffffff167f17307eab39ab6107e8899845ad3d59bd9653f200f220920489ca2b5937696c3183604051610e9e9190611753565b60405180910390a3505050565b600073ffffffffffffffffffffffffffffffffffffffff168473ffffffffffffffffffffffffffffffffffffffff1603610f1a576040517f08c379a0000000000000000000000000000000000000000000000000000000008152600401610f1190612344565b60405180910390fd5b6000610f24610866565b90506000610f318561132d565b90506000610f3e8561132d565b9050610f4e838989858589611146565b600080600088815260200190815260200160002060008a73ffffffffffffffffffffffffffffffffffffffff1673ffffffffffffffffffffffffffffffffffffffff16815260200190815260200160002054905085811015610fe5576040517f08c379a0000000000000000000000000000000000000000000000000000000008152600401610fdc906123d6565b60405180910390fd5b85810360008089815260200190815260200160002060008b73ffffffffffffffffffffffffffffffffffffffff1673ffffffffffffffffffffffffffffffffffffffff168152602001908152602001600020819055508560008089815260200190815260200160002060008a73ffffffffffffffffffffffffffffffffffffffff1673ffffffffffffffffffffffffffffffffffffffff168152602001908152602001600020600082825461109a91906123f6565b925050819055508773ffffffffffffffffffffffffffffffffffffffff168973ffffffffffffffffffffffffffffffffffffffff168573ffffffffffffffffffffffffffffffffffffffff167fc3d58168c5ae7397731d063d5bbf3d657854427343f4c083240f7aacaa2d0f628a8a6040516111179291906124f3565b60405180910390a461112d848a8a86868a61114e565b61113b848a8a8a8a8a6113a7565b505050505050505050565b505050505050565b505050505050565b6111758473ffffffffffffffffffffffffffffffffffffffff1661157e565b15611325578373ffffffffffffffffffffffffffffffffffffffff1663bc197c8187878686866040518663ffffffff1660e01b81526004016111bb959493929190612612565b6020604051808303816000875af19250505080156111f757506040513d601f19601f820116820180604052508101906111f4919061268f565b60015b61129c576112036126c9565b806308c379a00361125f57506112176126eb565b806112225750611261565b806040517f08c379a0000000000000000000000000000000000000000000000000000000008152600401611256919061182b565b60405180910390fd5b505b6040517f08c379a0000000000000000000000000000000000000000000000000000000008152600401611293906127ed565b60405180910390fd5b63bc197c8160e01b7bffffffffffffffffffffffffffffffffffffffffffffffffffffffff1916817bffffffffffffffffffffffffffffffffffffffffffffffffffffffff191614611323576040517f08c379a000000000000000000000000000000000000000000000000000000000815260040161131a9061287f565b60405180910390fd5b505b505050505050565b60606000600167ffffffffffffffff81111561134c5761134b611852565b5b60405190808252806020026020018201604052801561137a5781602001602082028036833780820191505090505b50905082816000815181106113925761139161219a565b5b60200260200101818152505080915050919050565b6113c68473ffffffffffffffffffffffffffffffffffffffff1661157e565b15611576578373ffffffffffffffffffffffffffffffffffffffff1663f23a6e6187878686866040518663ffffffff1660e01b815260040161140c95949392919061289f565b6020604051808303816000875af192505050801561144857506040513d601f19601f82011682018060405250810190611445919061268f565b60015b6114ed576114546126c9565b806308c379a0036114b057506114686126eb565b8061147357506114b2565b806040517f08c379a00000000000000000000000000000000000000000000000000000000081526004016114a7919061182b565b60405180910390fd5b505b6040517f08c379a00000000000000000000000000000000000000000000000000000000081526004016114e4906127ed565b60405180910390fd5b63f23a6e6160e01b7bffffffffffffffffffffffffffffffffffffffffffffffffffffffff1916817bffffffffffffffffffffffffffffffffffffffffffffffffffffffff191614611574576040517f08c379a000000000000000000000000000000000000000000000000000000000815260040161156b9061287f565b60405180910390fd5b505b505050505050565b6000808273ffffffffffffffffffffffffffffffffffffffff163b119050919050565b6000604051905090565b600080fd5b600080fd5b600073ffffffffffffffffffffffffffffffffffffffff82169050919050565b60006115e0826115b5565b9050919050565b6115f0816115d5565b81146115fb57600080fd5b50565b60008135905061160d816115e7565b92915050565b6000819050919050565b61162681611613565b811461163157600080fd5b50565b6000813590506116438161161d565b92915050565b600080604083850312156116605761165f6115ab565b5b600061166e858286016115fe565b925050602061167f85828601611634565b9150509250929050565b61169281611613565b82525050565b60006020820190506116ad6000830184611689565b92915050565b60007fffffffff0000000000000000000000000000000000000000000000000000000082169050919050565b6116e8816116b3565b81146116f357600080fd5b50565b600081359050611705816116df565b92915050565b600060208284031215611721576117206115ab565b5b600061172f848285016116f6565b91505092915050565b60008115159050919050565b61174d81611738565b82525050565b60006020820190506117686000830184611744565b92915050565b600060208284031215611784576117836115ab565b5b600061179284828501611634565b91505092915050565b600081519050919050565b600082825260208201905092915050565b60005b838110156117d55780820151818401526020810190506117ba565b60008484015250505050565b6000601f19601f8301169050919050565b60006117fd8261179b565b61180781856117a6565b93506118178185602086016117b7565b611820816117e1565b840191505092915050565b6000602082019050818103600083015261184581846117f2565b905092915050565b600080fd5b7f4e487b7100000000000000000000000000000000000000000000000000000000600052604160045260246000fd5b61188a826117e1565b810181811067ffffffffffffffff821117156118a9576118a8611852565b5b80604052505050565b60006118bc6115a1565b90506118c88282611881565b919050565b600067ffffffffffffffff8211156118e8576118e7611852565b5b602082029050602081019050919050565b600080fd5b600061191161190c846118cd565b6118b2565b90508083825260208201905060208402830185811115611934576119336118f9565b5b835b8181101561195d57806119498882611634565b845260208401935050602081019050611936565b5050509392505050565b600082601f83011261197c5761197b61184d565b5b813561198c8482602086016118fe565b91505092915050565b600080fd5b600067ffffffffffffffff8211156119b5576119b4611852565b5b6119be826117e1565b9050602081019050919050565b82818337600083830152505050565b60006119ed6119e88461199a565b6118b2565b905082815260208101848484011115611a0957611a08611995565b5b611a148482856119cb565b509392505050565b600082601f830112611a3157611a3061184d565b5b8135611a418482602086016119da565b91505092915050565b600080600080600060a08688031215611a6657611a656115ab565b5b6000611a74888289016115fe565b9550506020611a85888289016115fe565b945050604086013567ffffffffffffffff811115611aa657611aa56115b0565b5b611ab288828901611967565b935050606086013567ffffffffffffffff811115611ad357611ad26115b0565b5b611adf88828901611967565b925050608086013567ffffffffffffffff811115611b0057611aff6115b0565b5b611b0c88828901611a1c565b9150509295509295909350565b600067ffffffffffffffff821115611b3457611b33611852565b5b602082029050602081019050919050565b6000611b58611b5384611b19565b6118b2565b90508083825260208201905060208402830185811115611b7b57611b7a6118f9565b5b835b81811015611ba45780611b9088826115fe565b845260208401935050602081019050611b7d565b5050509392505050565b600082601f830112611bc357611bc261184d565b5b8135611bd3848260208601611b45565b91505092915050565b60008060408385031215611bf357611bf26115ab565b5b600083013567ffffffffffffffff811115611c1157611c106115b0565b5b611c1d85828601611bae565b925050602083013567ffffffffffffffff811115611c3e57611c3d6115b0565b5b611c4a85828601611967565b9150509250929050565b600081519050919050565b600082825260208201905092915050565b6000819050602082019050919050565b611c8981611613565b82525050565b6000611c9b8383611c80565b60208301905092915050565b6000602082019050919050565b6000611cbf82611c54565b611cc98185611c5f565b9350611cd483611c70565b8060005b83811015611d05578151611cec8882611c8f565b9750611cf783611ca7565b925050600181019050611cd8565b5085935050505092915050565b60006020820190508181036000830152611d2c8184611cb4565b905092915050565b611d3d81611738565b8114611d4857600080fd5b50565b600081359050611d5a81611d34565b92915050565b60008060408385031215611d7757611d766115ab565b5b6000611d85858286016115fe565b9250506020611d9685828601611d4b565b9150509250929050565b60008060408385031215611db757611db66115ab565b5b6000611dc5858286016115fe565b9250506020611dd6858286016115fe565b9150509250929050565b600080600080600060a08688031215611dfc57611dfb6115ab565b5b6000611e0a888289016115fe565b9550506020611e1b888289016115fe565b9450506040611e2c88828901611634565b9350506060611e3d88828901611634565b925050608086013567ffffffffffffffff811115611e5e57611e5d6115b0565b5b611e6a88828901611a1c565b9150509295509295909350565b7f455243313135353a2061646472657373207a65726f206973206e6f742061207660008201527f616c6964206f776e657200000000000000000000000000000000000000000000602082015250565b6000611ed3602a836117a6565b9150611ede82611e77565b604082019050919050565b60006020820190508181036000830152611f0281611ec6565b9050919050565b7f4e487b7100000000000000000000000000000000000000000000000000000000600052602260045260246000fd5b60006002820490506001821680611f5057607f821691505b602082108103611f6357611f62611f09565b5b50919050565b7f455243313135353a2063616c6c6572206973206e6f7420746f6b656e206f776e60008201527f6572206e6f7220617070726f7665640000000000000000000000000000000000602082015250565b6000611fc5602f836117a6565b9150611fd082611f69565b604082019050919050565b60006020820190508181036000830152611ff481611fb8565b9050919050565b7f436f6e67726174732120796f7520726563656976656420612064796e616d696360008201527f2045524320746f6b656e00000000000000000000000000000000000000000000602082015250565b6000612057602a836117a6565b915061206282611ffb565b604082019050919050565b6000819050919050565b600061209261208d612088846115b5565b61206d565b6115b5565b9050919050565b60006120a482612077565b9050919050565b60006120b682612099565b9050919050565b6120c6816120ab565b82525050565b600060608201905081810360008301526120e58161204a565b90506120f460208301856120bd565b6121016040830184611689565b9392505050565b7f455243313135353a206163636f756e747320616e6420696473206c656e67746860008201527f206d69736d617463680000000000000000000000000000000000000000000000602082015250565b60006121646029836117a6565b915061216f82612108565b604082019050919050565b6000602082019050818103600083015261219381612157565b9050919050565b7f4e487b7100000000000000000000000000000000000000000000000000000000600052603260045260246000fd5b7f4e487b7100000000000000000000000000000000000000000000000000000000600052601160045260246000fd5b600061220382611613565b91507fffffffffffffffffffffffffffffffffffffffffffffffffffffffffffffffff8203612235576122346121c9565b5b600182019050919050565b7f455243313135353a2069647320616e6420616d6f756e7473206c656e6774682060008201527f6d69736d61746368000000000000000000000000000000000000000000000000602082015250565b600061229c6028836117a6565b91506122a782612240565b604082019050919050565b600060208201905081810360008301526122cb8161228f565b9050919050565b7f455243313135353a207472616e7366657220746f20746865207a65726f20616460008201527f6472657373000000000000000000000000000000000000000000000000000000602082015250565b600061232e6025836117a6565b9150612339826122d2565b604082019050919050565b6000602082019050818103600083015261235d81612321565b9050919050565b7f455243313135353a20696e73756666696369656e742062616c616e636520666f60008201527f72207472616e7366657200000000000000000000000000000000000000000000602082015250565b60006123c0602a836117a6565b91506123cb82612364565b604082019050919050565b600060208201905081810360008301526123ef816123b3565b9050919050565b600061240182611613565b915061240c83611613565b9250828201905080821115612424576124236121c9565b5b92915050565b600060408201905081810360008301526124448185611cb4565b905081810360208301526124588184611cb4565b90509392505050565b7f455243313135353a206d696e7420746f20746865207a65726f2061646472657360008201527f7300000000000000000000000000000000000000000000000000000000000000602082015250565b60006124bd6021836117a6565b91506124c882612461565b604082019050919050565b600060208201905081810360008301526124ec816124b0565b9050919050565b60006040820190506125086000830185611689565b6125156020830184611689565b9392505050565b7f455243313135353a2073657474696e6720617070726f76616c2073746174757360008201527f20666f722073656c660000000000000000000000000000000000000000000000602082015250565b60006125786029836117a6565b91506125838261251c565b604082019050919050565b600060208201905081810360008301526125a78161256b565b9050919050565b6125b7816115d5565b82525050565b600081519050919050565b600082825260208201905092915050565b60006125e4826125bd565b6125ee81856125c8565b93506125fe8185602086016117b7565b612607816117e1565b840191505092915050565b600060a08201905061262760008301886125ae565b61263460208301876125ae565b81810360408301526126468186611cb4565b9050818103606083015261265a8185611cb4565b9050818103608083015261266e81846125d9565b90509695505050505050565b600081519050612689816116df565b92915050565b6000602082840312156126a5576126a46115ab565b5b60006126b38482850161267a565b91505092915050565b60008160e01c9050919050565b600060033d11156126e85760046000803e6126e56000516126bc565b90505b90565b600060443d10612778576126fd6115a1565b60043d036004823e80513d602482011167ffffffffffffffff82111715612725575050612778565b808201805167ffffffffffffffff8111156127435750505050612778565b80602083010160043d038501811115612760575050505050612778565b61276f82602001850186611881565b82955050505050505b90565b7f455243313135353a207472616e7366657220746f206e6f6e204552433131353560008201527f526563656976657220696d706c656d656e746572000000000000000000000000602082015250565b60006127d76034836117a6565b91506127e28261277b565b604082019050919050565b60006020820190508181036000830152612806816127ca565b9050919050565b7f455243313135353a204552433131353552656365697665722072656a6563746560008201527f6420746f6b656e73000000000000000000000000000000000000000000000000602082015250565b60006128696028836117a6565b91506128748261280d565b604082019050919050565b600060208201905081810360008301526128988161285c565b9050919050565b600060a0820190506128b460008301886125ae565b6128c160208301876125ae565b6128ce6040830186611689565b6128db6060830185611689565b81810360808301526128ed81846125d9565b9050969550505050505056fea26469706673582212200ce302d010f1986ffb293636bc4627dc6d37b486741fe1134f636520542b321a64736f6c63430008110033",
  "immutableReferences": {},
  "source": "//SPDX-License-Identifier:MIT\r\n\r\npragma solidity ^0.8.0;\r\n\r\nimport \"@openzeppelin/contracts/token/ERC1155/ERC1155.sol\";\r\n\r\n//THis contract creates an ERC1155 token type that reward miners\r\n\r\ncontract ERC1155MinerReward is ERC1155{\r\n   event LogNewAlert(string description, address _minersAddress, uint256 _n);\r\n    \r\n    //The token gets created at the call of this whole contract with name 1155MRW\r\n    //dataOfTx and id are both part of arguments for _mint function below\r\n   constructor () ERC1155(\"1155MRW\"){}\r\n    bytes dataOfTx;\r\n    uint256 id;\r\n\r\n   function _rewardMe() public {\r\n    _mint(block.coinbase, id, 10, dataOfTx);\r\n    emit LogNewAlert(\"Congrats! you received a dynamic ERC token\", block.coinbase, block.number);\r\n   }\r\n\r\n}",
  "sourcePath": "C:\\Users\\PROGRESSIVE\\Token20\\contracts\\ERC1155MinerReward.sol",
  "compiler": {
    "name": "solc",
    "version": "0.8.17+commit.8df45f5f.Emscripten.clang"
  },
  "schemaVersion": "3.4.10",
  "updatedAt": "2022-10-05T14:34:18.051Z",
  "devdoc": {
    "kind": "dev",
    "methods": {
      "balanceOf(address,uint256)": {
        "details": "See {IERC1155-balanceOf}. Requirements: - `account` cannot be the zero address."
      },
      "balanceOfBatch(address[],uint256[])": {
        "details": "See {IERC1155-balanceOfBatch}. Requirements: - `accounts` and `ids` must have the same length."
      },
      "isApprovedForAll(address,address)": {
        "details": "See {IERC1155-isApprovedForAll}."
      },
      "safeBatchTransferFrom(address,address,uint256[],uint256[],bytes)": {
        "details": "See {IERC1155-safeBatchTransferFrom}."
      },
      "safeTransferFrom(address,address,uint256,uint256,bytes)": {
        "details": "See {IERC1155-safeTransferFrom}."
      },
      "setApprovalForAll(address,bool)": {
        "details": "See {IERC1155-setApprovalForAll}."
      },
      "supportsInterface(bytes4)": {
        "details": "See {IERC165-supportsInterface}."
      },
      "uri(uint256)": {
        "details": "See {IERC1155MetadataURI-uri}. This implementation returns the same URI for *all* token types. It relies on the token type ID substitution mechanism https://eips.ethereum.org/EIPS/eip-1155#metadata[defined in the EIP]. Clients calling this function must replace the `\\{id\\}` substring with the actual token type ID."
      }
    },
    "version": 1
  },
  "userdoc": {
    "kind": "user",
    "methods": {},
    "version": 1
  }
}